{
  "_format": "hh-sol-artifact-1",
  "contractName": "MyEpicNFT",
  "sourceName": "contracts/MyEpicNFT.sol",
  "abi": [
    {
      "inputs": [
        {
          "internalType": "string",
          "name": "_name",
          "type": "string"
        },
        {
          "internalType": "string",
          "name": "_symbol",
          "type": "string"
        },
        {
          "internalType": "string",
          "name": "_initBaseURI",
          "type": "string"
        },
        {
          "internalType": "string",
          "name": "_initNotRevealedUri",
          "type": "string"
        }
      ],
      "stateMutability": "nonpayable",
      "type": "constructor"
    },
    {
      "anonymous": false,
      "inputs": [
        {
          "indexed": true,
          "internalType": "address",
          "name": "owner",
          "type": "address"
        },
        {
          "indexed": true,
          "internalType": "address",
          "name": "approved",
          "type": "address"
        },
        {
          "indexed": true,
          "internalType": "uint256",
          "name": "tokenId",
          "type": "uint256"
        }
      ],
      "name": "Approval",
      "type": "event"
    },
    {
      "anonymous": false,
      "inputs": [
        {
          "indexed": true,
          "internalType": "address",
          "name": "owner",
          "type": "address"
        },
        {
          "indexed": true,
          "internalType": "address",
          "name": "operator",
          "type": "address"
        },
        {
          "indexed": false,
          "internalType": "bool",
          "name": "approved",
          "type": "bool"
        }
      ],
      "name": "ApprovalForAll",
      "type": "event"
    },
    {
      "anonymous": false,
      "inputs": [
        {
          "indexed": true,
          "internalType": "address",
          "name": "previousOwner",
          "type": "address"
        },
        {
          "indexed": true,
          "internalType": "address",
          "name": "newOwner",
          "type": "address"
        }
      ],
      "name": "OwnershipTransferred",
      "type": "event"
    },
    {
      "anonymous": false,
      "inputs": [
        {
          "indexed": true,
          "internalType": "address",
          "name": "from",
          "type": "address"
        },
        {
          "indexed": true,
          "internalType": "address",
          "name": "to",
          "type": "address"
        },
        {
          "indexed": true,
          "internalType": "uint256",
          "name": "tokenId",
          "type": "uint256"
        }
      ],
      "name": "Transfer",
      "type": "event"
    },
    {
      "inputs": [
        {
          "internalType": "address",
          "name": "",
          "type": "address"
        }
      ],
      "name": "addressMintedBalance",
      "outputs": [
        {
          "internalType": "uint256",
          "name": "",
          "type": "uint256"
        }
      ],
      "stateMutability": "view",
      "type": "function"
    },
    {
      "inputs": [
        {
          "internalType": "address",
          "name": "to",
          "type": "address"
        },
        {
          "internalType": "uint256",
          "name": "tokenId",
          "type": "uint256"
        }
      ],
      "name": "approve",
      "outputs": [],
      "stateMutability": "nonpayable",
      "type": "function"
    },
    {
      "inputs": [
        {
          "internalType": "address",
          "name": "owner",
          "type": "address"
        }
      ],
      "name": "balanceOf",
      "outputs": [
        {
          "internalType": "uint256",
          "name": "",
          "type": "uint256"
        }
      ],
      "stateMutability": "view",
      "type": "function"
    },
    {
      "inputs": [],
      "name": "baseExtension",
      "outputs": [
        {
          "internalType": "string",
          "name": "",
          "type": "string"
        }
      ],
      "stateMutability": "view",
      "type": "function"
    },
    {
      "inputs": [],
      "name": "baseURI",
      "outputs": [
        {
          "internalType": "string",
          "name": "",
          "type": "string"
        }
      ],
      "stateMutability": "view",
      "type": "function"
    },
    {
      "inputs": [],
      "name": "cost",
      "outputs": [
        {
          "internalType": "uint256",
          "name": "",
          "type": "uint256"
        }
      ],
      "stateMutability": "view",
      "type": "function"
    },
    {
      "inputs": [
        {
          "internalType": "uint256",
          "name": "tokenId",
          "type": "uint256"
        }
      ],
      "name": "getApproved",
      "outputs": [
        {
          "internalType": "address",
          "name": "",
          "type": "address"
        }
      ],
      "stateMutability": "view",
      "type": "function"
    },
    {
      "inputs": [
        {
          "internalType": "address",
          "name": "owner",
          "type": "address"
        },
        {
          "internalType": "address",
          "name": "operator",
          "type": "address"
        }
      ],
      "name": "isApprovedForAll",
      "outputs": [
        {
          "internalType": "bool",
          "name": "",
          "type": "bool"
        }
      ],
      "stateMutability": "view",
      "type": "function"
    },
    {
      "inputs": [
        {
          "internalType": "address",
          "name": "_user",
          "type": "address"
        }
      ],
      "name": "isWhitelisted",
      "outputs": [
        {
          "internalType": "bool",
          "name": "",
          "type": "bool"
        }
      ],
      "stateMutability": "view",
      "type": "function"
    },
    {
      "inputs": [],
      "name": "maxMintAmount",
      "outputs": [
        {
          "internalType": "uint256",
          "name": "",
          "type": "uint256"
        }
      ],
      "stateMutability": "view",
      "type": "function"
    },
    {
      "inputs": [],
      "name": "maxSupply",
      "outputs": [
        {
          "internalType": "uint256",
          "name": "",
          "type": "uint256"
        }
      ],
      "stateMutability": "view",
      "type": "function"
    },
    {
      "inputs": [
        {
          "internalType": "uint256",
          "name": "_mintAmount",
          "type": "uint256"
        }
      ],
      "name": "mint",
      "outputs": [],
      "stateMutability": "payable",
      "type": "function"
    },
    {
      "inputs": [],
      "name": "name",
      "outputs": [
        {
          "internalType": "string",
          "name": "",
          "type": "string"
        }
      ],
      "stateMutability": "view",
      "type": "function"
    },
    {
      "inputs": [],
      "name": "nftPerAddressLimit",
      "outputs": [
        {
          "internalType": "uint256",
          "name": "",
          "type": "uint256"
        }
      ],
      "stateMutability": "view",
      "type": "function"
    },
    {
      "inputs": [],
      "name": "notRevealedUri",
      "outputs": [
        {
          "internalType": "string",
          "name": "",
          "type": "string"
        }
      ],
      "stateMutability": "view",
      "type": "function"
    },
    {
      "inputs": [],
      "name": "onlyWhitelisted",
      "outputs": [
        {
          "internalType": "bool",
          "name": "",
          "type": "bool"
        }
      ],
      "stateMutability": "view",
      "type": "function"
    },
    {
      "inputs": [],
      "name": "owner",
      "outputs": [
        {
          "internalType": "address",
          "name": "",
          "type": "address"
        }
      ],
      "stateMutability": "view",
      "type": "function"
    },
    {
      "inputs": [
        {
          "internalType": "uint256",
          "name": "tokenId",
          "type": "uint256"
        }
      ],
      "name": "ownerOf",
      "outputs": [
        {
          "internalType": "address",
          "name": "",
          "type": "address"
        }
      ],
      "stateMutability": "view",
      "type": "function"
    },
    {
      "inputs": [
        {
          "internalType": "bool",
          "name": "_state",
          "type": "bool"
        }
      ],
      "name": "pause",
      "outputs": [],
      "stateMutability": "nonpayable",
      "type": "function"
    },
    {
      "inputs": [],
      "name": "paused",
      "outputs": [
        {
          "internalType": "bool",
          "name": "",
          "type": "bool"
        }
      ],
      "stateMutability": "view",
      "type": "function"
    },
    {
      "inputs": [],
      "name": "renounceOwnership",
      "outputs": [],
      "stateMutability": "nonpayable",
      "type": "function"
    },
    {
      "inputs": [],
      "name": "reveal",
      "outputs": [],
      "stateMutability": "nonpayable",
      "type": "function"
    },
    {
      "inputs": [],
      "name": "revealed",
      "outputs": [
        {
          "internalType": "bool",
          "name": "",
          "type": "bool"
        }
      ],
      "stateMutability": "view",
      "type": "function"
    },
    {
      "inputs": [
        {
          "internalType": "address",
          "name": "from",
          "type": "address"
        },
        {
          "internalType": "address",
          "name": "to",
          "type": "address"
        },
        {
          "internalType": "uint256",
          "name": "tokenId",
          "type": "uint256"
        }
      ],
      "name": "safeTransferFrom",
      "outputs": [],
      "stateMutability": "nonpayable",
      "type": "function"
    },
    {
      "inputs": [
        {
          "internalType": "address",
          "name": "from",
          "type": "address"
        },
        {
          "internalType": "address",
          "name": "to",
          "type": "address"
        },
        {
          "internalType": "uint256",
          "name": "tokenId",
          "type": "uint256"
        },
        {
          "internalType": "bytes",
          "name": "_data",
          "type": "bytes"
        }
      ],
      "name": "safeTransferFrom",
      "outputs": [],
      "stateMutability": "nonpayable",
      "type": "function"
    },
    {
      "inputs": [
        {
          "internalType": "address",
          "name": "operator",
          "type": "address"
        },
        {
          "internalType": "bool",
          "name": "approved",
          "type": "bool"
        }
      ],
      "name": "setApprovalForAll",
      "outputs": [],
      "stateMutability": "nonpayable",
      "type": "function"
    },
    {
      "inputs": [
        {
          "internalType": "string",
          "name": "_newBaseExtension",
          "type": "string"
        }
      ],
      "name": "setBaseExtension",
      "outputs": [],
      "stateMutability": "nonpayable",
      "type": "function"
    },
    {
      "inputs": [
        {
          "internalType": "string",
          "name": "_newBaseURI",
          "type": "string"
        }
      ],
      "name": "setBaseURI",
      "outputs": [],
      "stateMutability": "nonpayable",
      "type": "function"
    },
    {
      "inputs": [
        {
          "internalType": "uint256",
          "name": "_newCost",
          "type": "uint256"
        }
      ],
      "name": "setCost",
      "outputs": [],
      "stateMutability": "nonpayable",
      "type": "function"
    },
    {
      "inputs": [
        {
          "internalType": "uint256",
          "name": "_limit",
          "type": "uint256"
        }
      ],
      "name": "setNftPerAddressLimit",
      "outputs": [],
      "stateMutability": "nonpayable",
      "type": "function"
    },
    {
      "inputs": [
        {
          "internalType": "string",
          "name": "_notRevealedURI",
          "type": "string"
        }
      ],
      "name": "setNotRevealedURI",
      "outputs": [],
      "stateMutability": "nonpayable",
      "type": "function"
    },
    {
      "inputs": [
        {
          "internalType": "bool",
          "name": "_state",
          "type": "bool"
        }
      ],
      "name": "setOnlyWhitelisted",
      "outputs": [],
      "stateMutability": "nonpayable",
      "type": "function"
    },
    {
      "inputs": [
        {
          "internalType": "uint256",
          "name": "_newmaxMintAmount",
          "type": "uint256"
        }
      ],
      "name": "setmaxMintAmount",
      "outputs": [],
      "stateMutability": "nonpayable",
      "type": "function"
    },
    {
      "inputs": [
        {
          "internalType": "bytes4",
          "name": "interfaceId",
          "type": "bytes4"
        }
      ],
      "name": "supportsInterface",
      "outputs": [
        {
          "internalType": "bool",
          "name": "",
          "type": "bool"
        }
      ],
      "stateMutability": "view",
      "type": "function"
    },
    {
      "inputs": [],
      "name": "symbol",
      "outputs": [
        {
          "internalType": "string",
          "name": "",
          "type": "string"
        }
      ],
      "stateMutability": "view",
      "type": "function"
    },
    {
      "inputs": [
        {
          "internalType": "uint256",
          "name": "index",
          "type": "uint256"
        }
      ],
      "name": "tokenByIndex",
      "outputs": [
        {
          "internalType": "uint256",
          "name": "",
          "type": "uint256"
        }
      ],
      "stateMutability": "view",
      "type": "function"
    },
    {
      "inputs": [
        {
          "internalType": "address",
          "name": "owner",
          "type": "address"
        },
        {
          "internalType": "uint256",
          "name": "index",
          "type": "uint256"
        }
      ],
      "name": "tokenOfOwnerByIndex",
      "outputs": [
        {
          "internalType": "uint256",
          "name": "",
          "type": "uint256"
        }
      ],
      "stateMutability": "view",
      "type": "function"
    },
    {
      "inputs": [
        {
          "internalType": "uint256",
          "name": "tokenId",
          "type": "uint256"
        }
      ],
      "name": "tokenURI",
      "outputs": [
        {
          "internalType": "string",
          "name": "",
          "type": "string"
        }
      ],
      "stateMutability": "view",
      "type": "function"
    },
    {
      "inputs": [],
      "name": "totalSupply",
      "outputs": [
        {
          "internalType": "uint256",
          "name": "",
          "type": "uint256"
        }
      ],
      "stateMutability": "view",
      "type": "function"
    },
    {
      "inputs": [
        {
          "internalType": "address",
          "name": "from",
          "type": "address"
        },
        {
          "internalType": "address",
          "name": "to",
          "type": "address"
        },
        {
          "internalType": "uint256",
          "name": "tokenId",
          "type": "uint256"
        }
      ],
      "name": "transferFrom",
      "outputs": [],
      "stateMutability": "nonpayable",
      "type": "function"
    },
    {
      "inputs": [
        {
          "internalType": "address",
          "name": "newOwner",
          "type": "address"
        }
      ],
      "name": "transferOwnership",
      "outputs": [],
      "stateMutability": "nonpayable",
      "type": "function"
    },
    {
      "inputs": [
        {
          "internalType": "address",
          "name": "_owner",
          "type": "address"
        }
      ],
      "name": "walletOfOwner",
      "outputs": [
        {
          "internalType": "uint256[]",
          "name": "",
          "type": "uint256[]"
        }
      ],
      "stateMutability": "view",
      "type": "function"
    },
    {
      "inputs": [
        {
          "internalType": "address[]",
          "name": "_users",
          "type": "address[]"
        }
      ],
      "name": "whitelistUsers",
      "outputs": [],
      "stateMutability": "nonpayable",
      "type": "function"
    },
    {
      "inputs": [
        {
          "internalType": "uint256",
          "name": "",
          "type": "uint256"
        }
      ],
      "name": "whitelistedAddresses",
      "outputs": [
        {
          "internalType": "address",
          "name": "",
          "type": "address"
        }
      ],
      "stateMutability": "view",
      "type": "function"
    },
    {
      "inputs": [],
      "name": "withdraw",
      "outputs": [],
      "stateMutability": "payable",
      "type": "function"
    }
  ],
  "bytecode": "0x608060405260405180610100016040528060d381526020016200469b60d3913960089080519060200190620000369291906200082c565b506040518060800160405280605681526020016200476e6056913960099080519060200190620000689291906200082c565b506040518060c001604052806040518060400160405280600981526020017f43686f636f6c617465000000000000000000000000000000000000000000000081525081526020016040518060400160405280600581526020017f427265616400000000000000000000000000000000000000000000000000000081525081526020016040518060400160405280600481526020017f43616b650000000000000000000000000000000000000000000000000000000081525081526020016040518060400160405280600581526020017f43616e647900000000000000000000000000000000000000000000000000000081525081526020016040518060400160405280600481526020017f4d696c6b0000000000000000000000000000000000000000000000000000000081525081526020016040518060400160405280600981526020017f506f6e67706f6e67690000000000000000000000000000000000000000000000815250815250600a906006620001e6929190620008bd565b506040518060c001604052806040518060400160405280600481526020017f726963650000000000000000000000000000000000000000000000000000000081525081526020016040518060400160405280600681526020017f6e6f6f646c65000000000000000000000000000000000000000000000000000081525081526020016040518060400160405280600981526020017f726963655f63616b65000000000000000000000000000000000000000000000081525081526020016040518060400160405280600c81526020017f6672656e63685f6672696573000000000000000000000000000000000000000081525081526020016040518060400160405280600781526020017f74656d707572610000000000000000000000000000000000000000000000000081525081526020016040518060400160405280600481526020017f6567677300000000000000000000000000000000000000000000000000000000815250815250600b90600662000364929190620008bd565b506040518060c001604052806040518060400160405280600481526020017f42656e7a0000000000000000000000000000000000000000000000000000000081525081526020016040518060400160405280600581526020017f526578757300000000000000000000000000000000000000000000000000000081525081526020016040518060400160405280600481526020017f417564690000000000000000000000000000000000000000000000000000000081525081526020016040518060400160405280600381526020017f424d57000000000000000000000000000000000000000000000000000000000081525081526020016040518060400160405280600781526020017f53616e74616e610000000000000000000000000000000000000000000000000081525081526020016040518060400160405280600681526020017f546f796f74610000000000000000000000000000000000000000000000000000815250815250600c906006620004e2929190620008bd565b506040518060c001604052806040518060400160405280600381526020017f726564000000000000000000000000000000000000000000000000000000000081525081526020016040518060400160405280600781526020017f233038433241380000000000000000000000000000000000000000000000000081525081526020016040518060400160405280600481526020017f70696e6b0000000000000000000000000000000000000000000000000000000081525081526020016040518060400160405280600681526020017f79656c6c6f77000000000000000000000000000000000000000000000000000081525081526020016040518060400160405280600481526020017f626c75650000000000000000000000000000000000000000000000000000000081525081526020016040518060400160405280600581526020017f677265656e000000000000000000000000000000000000000000000000000000815250815250600d90600662000660929190620008bd565b503480156200066e57600080fd5b506040518060400160405280600981526020017f5371756172654e465400000000000000000000000000000000000000000000008152506040518060400160405280600681526020017f53515541524500000000000000000000000000000000000000000000000000008152508160009080519060200190620006f39291906200082c565b5080600190805190602001906200070c9291906200082c565b5050506200075a6040518060400160405280601e81526020017f54686973206973206d79204e465420636f6e74726163742e20576f61682100008152506200076060201b620011d51760201c565b62000ade565b620008008160405160240162000777919062000a55565b6040516020818303038152906040527f41304fac000000000000000000000000000000000000000000000000000000007bffffffffffffffffffffffffffffffffffffffffffffffffffffffff19166020820180517bffffffffffffffffffffffffffffffffffffffffffffffffffffffff83818316178352505050506200080360201b60201c565b50565b60008151905060006a636f6e736f6c652e6c6f679050602083016000808483855afa5050505050565b8280546200083a9062000aa8565b90600052602060002090601f0160209004810192826200085e5760008555620008aa565b82601f106200087957805160ff1916838001178555620008aa565b82800160010185558215620008aa579182015b82811115620008a95782518255916020019190600101906200088c565b5b509050620008b9919062000924565b5090565b82805482825590600052602060002090810192821562000911579160200282015b8281111562000910578251829080519060200190620008ff9291906200082c565b5091602001919060010190620008de565b5b50905062000920919062000943565b5090565b5b808211156200093f57600081600090555060010162000925565b5090565b5b808211156200096757600081816200095d91906200096b565b5060010162000944565b5090565b508054620009799062000aa8565b6000825580601f106200098d5750620009ae565b601f016020900490600052602060002090810190620009ad919062000924565b5b50565b600081519050919050565b600082825260208201905092915050565b60005b83811015620009ed578082015181840152602081019050620009d0565b83811115620009fd576000848401525b50505050565b6000601f19601f8301169050919050565b600062000a2182620009b1565b62000a2d8185620009bc565b935062000a3f818560208601620009cd565b62000a4a8162000a03565b840191505092915050565b6000602082019050818103600083015262000a71818462000a14565b905092915050565b7f4e487b7100000000000000000000000000000000000000000000000000000000600052602260045260246000fd5b6000600282049050600182168062000ac157607f821691505b6020821081141562000ad85762000ad762000a79565b5b50919050565b613bad8062000aee6000396000f3fe608060405234801561001057600080fd5b50600436106101165760003560e01c806370a08231116100a2578063b88d4fde11610071578063b88d4fde14610317578063c575757a14610333578063c87b56dd14610363578063de9d132f14610393578063e985e9c51461039d57610116565b806370a082311461027d57806395d89b41146102ad578063a22cb465146102cb578063b187301f146102e757610116565b806323b872dd116100e957806323b872dd146101b55780632de38d68146101d157806342842e0e14610201578063514dc8c61461021d5780636352211e1461024d57610116565b806301ffc9a71461011b57806306fdde031461014b578063081812fc14610169578063095ea7b314610199575b600080fd5b61013560048036038101906101309190612348565b6103cd565b6040516101429190612390565b60405180910390f35b6101536104af565b6040516101609190612444565b60405180910390f35b610183600480360381019061017e919061249c565b610541565b604051610190919061250a565b60405180910390f35b6101b360048036038101906101ae9190612551565b6105c6565b005b6101cf60048036038101906101ca9190612591565b6106de565b005b6101eb60048036038101906101e6919061249c565b61073e565b6040516101f89190612444565b60405180910390f35b61021b60048036038101906102169190612591565b610836565b005b6102376004803603810190610232919061249c565b610856565b6040516102449190612444565b60405180910390f35b6102676004803603810190610262919061249c565b61094e565b604051610274919061250a565b60405180910390f35b610297600480360381019061029291906125e4565b610a00565b6040516102a49190612620565b60405180910390f35b6102b5610ab8565b6040516102c29190612444565b60405180910390f35b6102e560048036038101906102e09190612667565b610b4a565b005b61030160048036038101906102fc919061249c565b610b60565b60405161030e9190612444565b60405180910390f35b610331600480360381019061032c91906127dc565b610c58565b005b61034d6004803603810190610348919061249c565b610cba565b60405161035a9190612444565b60405180910390f35b61037d6004803603810190610378919061249c565b610db2565b60405161038a9190612444565b60405180910390f35b61039b610f04565b005b6103b760048036038101906103b2919061285f565b611141565b6040516103c49190612390565b60405180910390f35b60007f80ac58cd000000000000000000000000000000000000000000000000000000007bffffffffffffffffffffffffffffffffffffffffffffffffffffffff1916827bffffffffffffffffffffffffffffffffffffffffffffffffffffffff1916148061049857507f5b5e139f000000000000000000000000000000000000000000000000000000007bffffffffffffffffffffffffffffffffffffffffffffffffffffffff1916827bffffffffffffffffffffffffffffffffffffffffffffffffffffffff1916145b806104a857506104a78261126e565b5b9050919050565b6060600080546104be906128ce565b80601f01602080910402602001604051908101604052809291908181526020018280546104ea906128ce565b80156105375780601f1061050c57610100808354040283529160200191610537565b820191906000526020600020905b81548152906001019060200180831161051a57829003601f168201915b5050505050905090565b600061054c826112d8565b61058b576040517f08c379a000000000000000000000000000000000000000000000000000000000815260040161058290612972565b60405180910390fd5b6004600083815260200190815260200160002060009054906101000a900473ffffffffffffffffffffffffffffffffffffffff169050919050565b60006105d18261094e565b90508073ffffffffffffffffffffffffffffffffffffffff168373ffffffffffffffffffffffffffffffffffffffff161415610642576040517f08c379a000000000000000000000000000000000000000000000000000000000815260040161063990612a04565b60405180910390fd5b8073ffffffffffffffffffffffffffffffffffffffff16610661611344565b73ffffffffffffffffffffffffffffffffffffffff161480610690575061068f8161068a611344565b611141565b5b6106cf576040517f08c379a00000000000000000000000000000000000000000000000000000000081526004016106c690612a96565b60405180910390fd5b6106d9838361134c565b505050565b6106ef6106e9611344565b82611405565b61072e576040517f08c379a000000000000000000000000000000000000000000000000000000000815260040161072590612b28565b60405180910390fd5b6107398383836114e3565b505050565b6060600061077261074e8461173f565b60405160200161075e9190612bd0565b6040516020818303038152906040526118a0565b9050600a80549050816107859190612c21565b9050600a818154811061079b5761079a612c52565b5b9060005260206000200180546107b0906128ce565b80601f01602080910402602001604051908101604052809291908181526020018280546107dc906128ce565b80156108295780601f106107fe57610100808354040283529160200191610829565b820191906000526020600020905b81548152906001019060200180831161080c57829003601f168201915b5050505050915050919050565b61085183838360405180602001604052806000815250610c58565b505050565b6060600061088a6108668461173f565b6040516020016108769190612ccd565b6040516020818303038152906040526118a0565b9050600d805490508161089d9190612c21565b9050600d81815481106108b3576108b2612c52565b5b9060005260206000200180546108c8906128ce565b80601f01602080910402602001604051908101604052809291908181526020018280546108f4906128ce565b80156109415780601f1061091657610100808354040283529160200191610941565b820191906000526020600020905b81548152906001019060200180831161092457829003601f168201915b5050505050915050919050565b6000806002600084815260200190815260200160002060009054906101000a900473ffffffffffffffffffffffffffffffffffffffff169050600073ffffffffffffffffffffffffffffffffffffffff168173ffffffffffffffffffffffffffffffffffffffff1614156109f7576040517f08c379a00000000000000000000000000000000000000000000000000000000081526004016109ee90612d61565b60405180910390fd5b80915050919050565b60008073ffffffffffffffffffffffffffffffffffffffff168273ffffffffffffffffffffffffffffffffffffffff161415610a71576040517f08c379a0000000000000000000000000000000000000000000000000000000008152600401610a6890612df3565b60405180910390fd5b600360008373ffffffffffffffffffffffffffffffffffffffff1673ffffffffffffffffffffffffffffffffffffffff168152602001908152602001600020549050919050565b606060018054610ac7906128ce565b80601f0160208091040260200160405190810160405280929190818152602001828054610af3906128ce565b8015610b405780601f10610b1557610100808354040283529160200191610b40565b820191906000526020600020905b815481529060010190602001808311610b2357829003601f168201915b5050505050905090565b610b5c610b55611344565b83836118d3565b5050565b60606000610b94610b708461173f565b604051602001610b809190612e5f565b6040516020818303038152906040526118a0565b9050600b8054905081610ba79190612c21565b9050600b8181548110610bbd57610bbc612c52565b5b906000526020600020018054610bd2906128ce565b80601f0160208091040260200160405190810160405280929190818152602001828054610bfe906128ce565b8015610c4b5780601f10610c2057610100808354040283529160200191610c4b565b820191906000526020600020905b815481529060010190602001808311610c2e57829003601f168201915b5050505050915050919050565b610c69610c63611344565b83611405565b610ca8576040517f08c379a0000000000000000000000000000000000000000000000000000000008152600401610c9f90612b28565b60405180910390fd5b610cb484848484611a40565b50505050565b60606000610cee610cca8461173f565b604051602001610cda9190612ecd565b6040516020818303038152906040526118a0565b9050600c8054905081610d019190612c21565b9050600c8181548110610d1757610d16612c52565b5b906000526020600020018054610d2c906128ce565b80601f0160208091040260200160405190810160405280929190818152602001828054610d58906128ce565b8015610da55780601f10610d7a57610100808354040283529160200191610da5565b820191906000526020600020905b815481529060010190602001808311610d8857829003601f168201915b5050505050915050919050565b6060610dbd826112d8565b610dfc576040517f08c379a0000000000000000000000000000000000000000000000000000000008152600401610df390612f61565b60405180910390fd5b6000600660008481526020019081526020016000208054610e1c906128ce565b80601f0160208091040260200160405190810160405280929190818152602001828054610e48906128ce565b8015610e955780601f10610e6a57610100808354040283529160200191610e95565b820191906000526020600020905b815481529060010190602001808311610e7857829003601f168201915b505050505090506000610ea6611a9c565b9050600081511415610ebc578192505050610eff565b600082511115610ef1578082604051602001610ed9929190612f81565b60405160208183030381529060405292505050610eff565b610efa84611ab3565b925050505b919050565b6000610f106007611b5a565b905060328110610f55576040517f08c379a0000000000000000000000000000000000000000000000000000000008152600401610f4c90612ff1565b60405180910390fd5b6000610f608261073e565b90506000610f6d83610b60565b90506000610f7a84610cba565b90506000838383604051602001610f9393929190613011565b60405160208183030381529060405290506000610faf86610856565b90506000600882600985604051602001610fcc9493929190613122565b6040516020818303038152906040529050600061101184610fec84611b68565b604051602001610ffd9291906132c1565b604051602081830303815290604052611b68565b90506000816040516020016110269190613352565b60405160208183030381529060405290506110756040518060400160405280601581526020017f0a2d2d2d2d2d2d2d2d2d2d2d2d2d2d2d2d2d2d2d2d00000000000000000000008152506111d5565b61107e816111d5565b6110bc6040518060400160405280601581526020017f2d2d2d2d2d2d2d2d2d2d2d2d2d2d2d2d2d2d2d2d0a00000000000000000000008152506111d5565b6110c6338a611d00565b6110d08982611d1e565b6110da6007611d92565b6110fd604051806060016040528060258152602001613b13602591398a33611da8565b7febb98688741ffa4c7589bf325de30cf7becb63de567842e1ccdb6cb949fdc82c338a60405161112e929190613374565b60405180910390a1505050505050505050565b6000600560008473ffffffffffffffffffffffffffffffffffffffff1673ffffffffffffffffffffffffffffffffffffffff16815260200190815260200160002060008373ffffffffffffffffffffffffffffffffffffffff1673ffffffffffffffffffffffffffffffffffffffff16815260200190815260200160002060009054906101000a900460ff16905092915050565b61126b816040516024016111e99190612444565b6040516020818303038152906040527f41304fac000000000000000000000000000000000000000000000000000000007bffffffffffffffffffffffffffffffffffffffffffffffffffffffff19166020820180517bffffffffffffffffffffffffffffffffffffffffffffffffffffffff8381831617835250505050611e47565b50565b60007f01ffc9a7000000000000000000000000000000000000000000000000000000007bffffffffffffffffffffffffffffffffffffffffffffffffffffffff1916827bffffffffffffffffffffffffffffffffffffffffffffffffffffffff1916149050919050565b60008073ffffffffffffffffffffffffffffffffffffffff166002600084815260200190815260200160002060009054906101000a900473ffffffffffffffffffffffffffffffffffffffff1673ffffffffffffffffffffffffffffffffffffffff1614159050919050565b600033905090565b816004600083815260200190815260200160002060006101000a81548173ffffffffffffffffffffffffffffffffffffffff021916908373ffffffffffffffffffffffffffffffffffffffff160217905550808273ffffffffffffffffffffffffffffffffffffffff166113bf8361094e565b73ffffffffffffffffffffffffffffffffffffffff167f8c5be1e5ebec7d5bd14f71427d1e84f3dd0314c0f7b2291e5b200ac8c7c3b92560405160405180910390a45050565b6000611410826112d8565b61144f576040517f08c379a00000000000000000000000000000000000000000000000000000000081526004016114469061340f565b60405180910390fd5b600061145a8361094e565b90508073ffffffffffffffffffffffffffffffffffffffff168473ffffffffffffffffffffffffffffffffffffffff1614806114c957508373ffffffffffffffffffffffffffffffffffffffff166114b184610541565b73ffffffffffffffffffffffffffffffffffffffff16145b806114da57506114d98185611141565b5b91505092915050565b8273ffffffffffffffffffffffffffffffffffffffff166115038261094e565b73ffffffffffffffffffffffffffffffffffffffff1614611559576040517f08c379a0000000000000000000000000000000000000000000000000000000008152600401611550906134a1565b60405180910390fd5b600073ffffffffffffffffffffffffffffffffffffffff168273ffffffffffffffffffffffffffffffffffffffff1614156115c9576040517f08c379a00000000000000000000000000000000000000000000000000000000081526004016115c090613533565b60405180910390fd5b6115d4838383611e70565b6115df60008261134c565b6001600360008573ffffffffffffffffffffffffffffffffffffffff1673ffffffffffffffffffffffffffffffffffffffff168152602001908152602001600020600082825461162f9190613582565b925050819055506001600360008473ffffffffffffffffffffffffffffffffffffffff1673ffffffffffffffffffffffffffffffffffffffff168152602001908152602001600020600082825461168691906135b6565b92505081905550816002600083815260200190815260200160002060006101000a81548173ffffffffffffffffffffffffffffffffffffffff021916908373ffffffffffffffffffffffffffffffffffffffff160217905550808273ffffffffffffffffffffffffffffffffffffffff168473ffffffffffffffffffffffffffffffffffffffff167fddf252ad1be2c89b69c2b068fc378daa952ba7f163c4a11628f55a4df523b3ef60405160405180910390a4505050565b60606000821415611787576040518060400160405280600181526020017f3000000000000000000000000000000000000000000000000000000000000000815250905061189b565b600082905060005b600082146117b95780806117a29061360c565b915050600a826117b29190613655565b915061178f565b60008167ffffffffffffffff8111156117d5576117d46126b1565b5b6040519080825280601f01601f1916602001820160405280156118075781602001600182028036833780820191505090505b5090505b60008514611894576001826118209190613582565b9150600a8561182f9190612c21565b603061183b91906135b6565b60f81b81838151811061185157611850612c52565b5b60200101907effffffffffffffffffffffffffffffffffffffffffffffffffffffffffffff1916908160001a905350600a8561188d9190613655565b945061180b565b8093505050505b919050565b6000816040516020016118b39190613686565b6040516020818303038152906040528051906020012060001c9050919050565b8173ffffffffffffffffffffffffffffffffffffffff168373ffffffffffffffffffffffffffffffffffffffff161415611942576040517f08c379a0000000000000000000000000000000000000000000000000000000008152600401611939906136e9565b60405180910390fd5b80600560008573ffffffffffffffffffffffffffffffffffffffff1673ffffffffffffffffffffffffffffffffffffffff16815260200190815260200160002060008473ffffffffffffffffffffffffffffffffffffffff1673ffffffffffffffffffffffffffffffffffffffff16815260200190815260200160002060006101000a81548160ff0219169083151502179055508173ffffffffffffffffffffffffffffffffffffffff168373ffffffffffffffffffffffffffffffffffffffff167f17307eab39ab6107e8899845ad3d59bd9653f200f220920489ca2b5937696c3183604051611a339190612390565b60405180910390a3505050565b611a4b8484846114e3565b611a5784848484611e75565b611a96576040517f08c379a0000000000000000000000000000000000000000000000000000000008152600401611a8d9061377b565b60405180910390fd5b50505050565b606060405180602001604052806000815250905090565b6060611abe826112d8565b611afd576040517f08c379a0000000000000000000000000000000000000000000000000000000008152600401611af49061380d565b60405180910390fd5b6000611b07611a9c565b90506000815111611b275760405180602001604052806000815250611b52565b80611b318461173f565b604051602001611b42929190612f81565b6040516020818303038152906040525b915050919050565b600081600001549050919050565b60606000825190506000811415611b915760405180602001604052806000815250915050611cfb565b60006003600283611ba291906135b6565b611bac9190613655565b6004611bb8919061382d565b90506000602082611bc991906135b6565b67ffffffffffffffff811115611be257611be16126b1565b5b6040519080825280601f01601f191660200182016040528015611c145781602001600182028036833780820191505090505b5090506000604051806060016040528060408152602001613b38604091399050600181016020830160005b86811015611cb85760038101905062ffffff818a015116603f8160121c168401518060081b905060ff603f83600c1c1686015116810190508060081b905060ff603f8360061c1686015116810190508060081b905060ff603f831686015116810190508060e01b90508084526004840193505050611c3f565b506003860660018114611cd25760028114611ce257611ced565b613d3d60f01b6002830352611ced565b603d60f81b60018303525b508484525050819450505050505b919050565b611d1a828260405180602001604052806000815250611ffd565b5050565b611d27826112d8565b611d66576040517f08c379a0000000000000000000000000000000000000000000000000000000008152600401611d5d906138f9565b60405180910390fd5b80600660008481526020019081526020016000209080519060200190611d8d929190612239565b505050565b6001816000016000828254019250508190555050565b611e42838383604051602401611dc093929190613919565b6040516020818303038152906040527fe3849f79000000000000000000000000000000000000000000000000000000007bffffffffffffffffffffffffffffffffffffffffffffffffffffffff19166020820180517bffffffffffffffffffffffffffffffffffffffffffffffffffffffff8381831617835250505050611e47565b505050565b60008151905060006a636f6e736f6c652e6c6f679050602083016000808483855afa5050505050565b505050565b6000611e968473ffffffffffffffffffffffffffffffffffffffff16612058565b15611ff0578373ffffffffffffffffffffffffffffffffffffffff1663150b7a02611ebf611344565b8786866040518563ffffffff1660e01b8152600401611ee194939291906139ac565b6020604051808303816000875af1925050508015611f1d57506040513d601f19601f82011682018060405250810190611f1a9190613a0d565b60015b611fa0573d8060008114611f4d576040519150601f19603f3d011682016040523d82523d6000602084013e611f52565b606091505b50600081511415611f98576040517f08c379a0000000000000000000000000000000000000000000000000000000008152600401611f8f9061377b565b60405180910390fd5b805181602001fd5b63150b7a0260e01b7bffffffffffffffffffffffffffffffffffffffffffffffffffffffff1916817bffffffffffffffffffffffffffffffffffffffffffffffffffffffff191614915050611ff5565b600190505b949350505050565b612007838361206b565b6120146000848484611e75565b612053576040517f08c379a000000000000000000000000000000000000000000000000000000000815260040161204a9061377b565b60405180910390fd5b505050565b600080823b905060008111915050919050565b600073ffffffffffffffffffffffffffffffffffffffff168273ffffffffffffffffffffffffffffffffffffffff1614156120db576040517f08c379a00000000000000000000000000000000000000000000000000000000081526004016120d290613a86565b60405180910390fd5b6120e4816112d8565b15612124576040517f08c379a000000000000000000000000000000000000000000000000000000000815260040161211b90613af2565b60405180910390fd5b61213060008383611e70565b6001600360008473ffffffffffffffffffffffffffffffffffffffff1673ffffffffffffffffffffffffffffffffffffffff168152602001908152602001600020600082825461218091906135b6565b92505081905550816002600083815260200190815260200160002060006101000a81548173ffffffffffffffffffffffffffffffffffffffff021916908373ffffffffffffffffffffffffffffffffffffffff160217905550808273ffffffffffffffffffffffffffffffffffffffff16600073ffffffffffffffffffffffffffffffffffffffff167fddf252ad1be2c89b69c2b068fc378daa952ba7f163c4a11628f55a4df523b3ef60405160405180910390a45050565b828054612245906128ce565b90600052602060002090601f01602090048101928261226757600085556122ae565b82601f1061228057805160ff19168380011785556122ae565b828001600101855582156122ae579182015b828111156122ad578251825591602001919060010190612292565b5b5090506122bb91906122bf565b5090565b5b808211156122d85760008160009055506001016122c0565b5090565b6000604051905090565b600080fd5b600080fd5b60007fffffffff0000000000000000000000000000000000000000000000000000000082169050919050565b612325816122f0565b811461233057600080fd5b50565b6000813590506123428161231c565b92915050565b60006020828403121561235e5761235d6122e6565b5b600061236c84828501612333565b91505092915050565b60008115159050919050565b61238a81612375565b82525050565b60006020820190506123a56000830184612381565b92915050565b600081519050919050565b600082825260208201905092915050565b60005b838110156123e55780820151818401526020810190506123ca565b838111156123f4576000848401525b50505050565b6000601f19601f8301169050919050565b6000612416826123ab565b61242081856123b6565b93506124308185602086016123c7565b612439816123fa565b840191505092915050565b6000602082019050818103600083015261245e818461240b565b905092915050565b6000819050919050565b61247981612466565b811461248457600080fd5b50565b60008135905061249681612470565b92915050565b6000602082840312156124b2576124b16122e6565b5b60006124c084828501612487565b91505092915050565b600073ffffffffffffffffffffffffffffffffffffffff82169050919050565b60006124f4826124c9565b9050919050565b612504816124e9565b82525050565b600060208201905061251f60008301846124fb565b92915050565b61252e816124e9565b811461253957600080fd5b50565b60008135905061254b81612525565b92915050565b60008060408385031215612568576125676122e6565b5b60006125768582860161253c565b925050602061258785828601612487565b9150509250929050565b6000806000606084860312156125aa576125a96122e6565b5b60006125b88682870161253c565b93505060206125c98682870161253c565b92505060406125da86828701612487565b9150509250925092565b6000602082840312156125fa576125f96122e6565b5b60006126088482850161253c565b91505092915050565b61261a81612466565b82525050565b60006020820190506126356000830184612611565b92915050565b61264481612375565b811461264f57600080fd5b50565b6000813590506126618161263b565b92915050565b6000806040838503121561267e5761267d6122e6565b5b600061268c8582860161253c565b925050602061269d85828601612652565b9150509250929050565b600080fd5b600080fd5b7f4e487b7100000000000000000000000000000000000000000000000000000000600052604160045260246000fd5b6126e9826123fa565b810181811067ffffffffffffffff82111715612708576127076126b1565b5b80604052505050565b600061271b6122dc565b905061272782826126e0565b919050565b600067ffffffffffffffff821115612747576127466126b1565b5b612750826123fa565b9050602081019050919050565b82818337600083830152505050565b600061277f61277a8461272c565b612711565b90508281526020810184848401111561279b5761279a6126ac565b5b6127a684828561275d565b509392505050565b600082601f8301126127c3576127c26126a7565b5b81356127d384826020860161276c565b91505092915050565b600080600080608085870312156127f6576127f56122e6565b5b60006128048782880161253c565b94505060206128158782880161253c565b935050604061282687828801612487565b925050606085013567ffffffffffffffff811115612847576128466122eb565b5b612853878288016127ae565b91505092959194509250565b60008060408385031215612876576128756122e6565b5b60006128848582860161253c565b92505060206128958582860161253c565b9150509250929050565b7f4e487b7100000000000000000000000000000000000000000000000000000000600052602260045260246000fd5b600060028204905060018216806128e657607f821691505b602082108114156128fa576128f961289f565b5b50919050565b7f4552433732313a20617070726f76656420717565727920666f72206e6f6e657860008201527f697374656e7420746f6b656e0000000000000000000000000000000000000000602082015250565b600061295c602c836123b6565b915061296782612900565b604082019050919050565b6000602082019050818103600083015261298b8161294f565b9050919050565b7f4552433732313a20617070726f76616c20746f2063757272656e74206f776e6560008201527f7200000000000000000000000000000000000000000000000000000000000000602082015250565b60006129ee6021836123b6565b91506129f982612992565b604082019050919050565b60006020820190508181036000830152612a1d816129e1565b9050919050565b7f4552433732313a20617070726f76652063616c6c6572206973206e6f74206f7760008201527f6e6572206e6f7220617070726f76656420666f7220616c6c0000000000000000602082015250565b6000612a806038836123b6565b9150612a8b82612a24565b604082019050919050565b60006020820190508181036000830152612aaf81612a73565b9050919050565b7f4552433732313a207472616e736665722063616c6c6572206973206e6f74206f60008201527f776e6572206e6f7220617070726f766564000000000000000000000000000000602082015250565b6000612b126031836123b6565b9150612b1d82612ab6565b604082019050919050565b60006020820190508181036000830152612b4181612b05565b9050919050565b600081905092915050565b7f46495253545f574f524400000000000000000000000000000000000000000000600082015250565b6000612b89600a83612b48565b9150612b9482612b53565b600a82019050919050565b6000612baa826123ab565b612bb48185612b48565b9350612bc48185602086016123c7565b80840191505092915050565b6000612bdb82612b7c565b9150612be78284612b9f565b915081905092915050565b7f4e487b7100000000000000000000000000000000000000000000000000000000600052601260045260246000fd5b6000612c2c82612466565b9150612c3783612466565b925082612c4757612c46612bf2565b5b828206905092915050565b7f4e487b7100000000000000000000000000000000000000000000000000000000600052603260045260246000fd5b7f434f4c4f52000000000000000000000000000000000000000000000000000000600082015250565b6000612cb7600583612b48565b9150612cc282612c81565b600582019050919050565b6000612cd882612caa565b9150612ce48284612b9f565b915081905092915050565b7f4552433732313a206f776e657220717565727920666f72206e6f6e657869737460008201527f656e7420746f6b656e0000000000000000000000000000000000000000000000602082015250565b6000612d4b6029836123b6565b9150612d5682612cef565b604082019050919050565b60006020820190508181036000830152612d7a81612d3e565b9050919050565b7f4552433732313a2062616c616e636520717565727920666f7220746865207a6560008201527f726f206164647265737300000000000000000000000000000000000000000000602082015250565b6000612ddd602a836123b6565b9150612de882612d81565b604082019050919050565b60006020820190508181036000830152612e0c81612dd0565b9050919050565b7f5345434f4e445f574f5244000000000000000000000000000000000000000000600082015250565b6000612e49600b83612b48565b9150612e5482612e13565b600b82019050919050565b6000612e6a82612e3c565b9150612e768284612b9f565b915081905092915050565b7f54484952445f574f524400000000000000000000000000000000000000000000600082015250565b6000612eb7600a83612b48565b9150612ec282612e81565b600a82019050919050565b6000612ed882612eaa565b9150612ee48284612b9f565b915081905092915050565b7f45524337323155524953746f726167653a2055524920717565727920666f722060008201527f6e6f6e6578697374656e7420746f6b656e000000000000000000000000000000602082015250565b6000612f4b6031836123b6565b9150612f5682612eef565b604082019050919050565b60006020820190508181036000830152612f7a81612f3e565b9050919050565b6000612f8d8285612b9f565b9150612f998284612b9f565b91508190509392505050565b7f4c696d697420636f756e74206f66204e46540000000000000000000000000000600082015250565b6000612fdb6012836123b6565b9150612fe682612fa5565b602082019050919050565b6000602082019050818103600083015261300a81612fce565b9050919050565b600061301d8286612b9f565b91506130298285612b9f565b91506130358284612b9f565b9150819050949350505050565b60008190508160005260206000209050919050565b60008154613064816128ce565b61306e8186612b48565b94506001821660008114613089576001811461309a576130cd565b60ff198316865281860193506130cd565b6130a385613042565b60005b838110156130c5578154818901526001820191506020810190506130a6565b838801955050505b50505092915050565b7f3c2f746578743e3c2f7376673e00000000000000000000000000000000000000600082015250565b600061310c600d83612b48565b9150613117826130d6565b600d82019050919050565b600061312e8287613057565b915061313a8286612b9f565b91506131468285613057565b91506131528284612b9f565b915061315d826130ff565b915081905095945050505050565b7f7b226e616d65223a202200000000000000000000000000000000000000000000600082015250565b60006131a1600a83612b48565b91506131ac8261316b565b600a82019050919050565b7f222c20226465736372697074696f6e223a20224120686967686c79206163636c60008201527f61696d656420636f6c6c656374696f6e206f6620737175617265732e222c202260208201527f696d616765223a2022646174613a696d6167652f7376672b786d6c3b6261736560408201527f36342c0000000000000000000000000000000000000000000000000000000000606082015250565b600061325f606383612b48565b915061326a826131b7565b606382019050919050565b7f227d000000000000000000000000000000000000000000000000000000000000600082015250565b60006132ab600283612b48565b91506132b682613275565b600282019050919050565b60006132cc82613194565b91506132d88285612b9f565b91506132e382613252565b91506132ef8284612b9f565b91506132fa8261329e565b91508190509392505050565b7f646174613a6170706c69636174696f6e2f6a736f6e3b6261736536342c000000600082015250565b600061333c601d83612b48565b915061334782613306565b601d82019050919050565b600061335d8261332f565b91506133698284612b9f565b915081905092915050565b600060408201905061338960008301856124fb565b6133966020830184612611565b9392505050565b7f4552433732313a206f70657261746f7220717565727920666f72206e6f6e657860008201527f697374656e7420746f6b656e0000000000000000000000000000000000000000602082015250565b60006133f9602c836123b6565b91506134048261339d565b604082019050919050565b60006020820190508181036000830152613428816133ec565b9050919050565b7f4552433732313a207472616e73666572206f6620746f6b656e2074686174206960008201527f73206e6f74206f776e0000000000000000000000000000000000000000000000602082015250565b600061348b6029836123b6565b91506134968261342f565b604082019050919050565b600060208201905081810360008301526134ba8161347e565b9050919050565b7f4552433732313a207472616e7366657220746f20746865207a65726f2061646460008201527f7265737300000000000000000000000000000000000000000000000000000000602082015250565b600061351d6024836123b6565b9150613528826134c1565b604082019050919050565b6000602082019050818103600083015261354c81613510565b9050919050565b7f4e487b7100000000000000000000000000000000000000000000000000000000600052601160045260246000fd5b600061358d82612466565b915061359883612466565b9250828210156135ab576135aa613553565b5b828203905092915050565b60006135c182612466565b91506135cc83612466565b9250827fffffffffffffffffffffffffffffffffffffffffffffffffffffffffffffffff0382111561360157613600613553565b5b828201905092915050565b600061361782612466565b91507fffffffffffffffffffffffffffffffffffffffffffffffffffffffffffffffff82141561364a57613649613553565b5b600182019050919050565b600061366082612466565b915061366b83612466565b92508261367b5761367a612bf2565b5b828204905092915050565b60006136928284612b9f565b915081905092915050565b7f4552433732313a20617070726f766520746f2063616c6c657200000000000000600082015250565b60006136d36019836123b6565b91506136de8261369d565b602082019050919050565b60006020820190508181036000830152613702816136c6565b9050919050565b7f4552433732313a207472616e7366657220746f206e6f6e20455243373231526560008201527f63656976657220696d706c656d656e7465720000000000000000000000000000602082015250565b60006137656032836123b6565b915061377082613709565b604082019050919050565b6000602082019050818103600083015261379481613758565b9050919050565b7f4552433732314d657461646174613a2055524920717565727920666f72206e6f60008201527f6e6578697374656e7420746f6b656e0000000000000000000000000000000000602082015250565b60006137f7602f836123b6565b91506138028261379b565b604082019050919050565b60006020820190508181036000830152613826816137ea565b9050919050565b600061383882612466565b915061384383612466565b9250817fffffffffffffffffffffffffffffffffffffffffffffffffffffffffffffffff048311821515161561387c5761387b613553565b5b828202905092915050565b7f45524337323155524953746f726167653a2055524920736574206f66206e6f6e60008201527f6578697374656e7420746f6b656e000000000000000000000000000000000000602082015250565b60006138e3602e836123b6565b91506138ee82613887565b604082019050919050565b60006020820190508181036000830152613912816138d6565b9050919050565b60006060820190508181036000830152613933818661240b565b90506139426020830185612611565b61394f60408301846124fb565b949350505050565b600081519050919050565b600082825260208201905092915050565b600061397e82613957565b6139888185613962565b93506139988185602086016123c7565b6139a1816123fa565b840191505092915050565b60006080820190506139c160008301876124fb565b6139ce60208301866124fb565b6139db6040830185612611565b81810360608301526139ed8184613973565b905095945050505050565b600081519050613a078161231c565b92915050565b600060208284031215613a2357613a226122e6565b5b6000613a31848285016139f8565b91505092915050565b7f4552433732313a206d696e7420746f20746865207a65726f2061646472657373600082015250565b6000613a706020836123b6565b9150613a7b82613a3a565b602082019050919050565b60006020820190508181036000830152613a9f81613a63565b9050919050565b7f4552433732313a20746f6b656e20616c7265616479206d696e74656400000000600082015250565b6000613adc601c836123b6565b9150613ae782613aa6565b602082019050919050565b60006020820190508181036000830152613b0b81613acf565b905091905056fe416e204e465420772f20494420257320686173206265656e206d696e74656420746f2025734142434445464748494a4b4c4d4e4f505152535455565758595a6162636465666768696a6b6c6d6e6f707172737475767778797a303132333435363738392b2fa264697066735822122093fbe19250ed6d3ececbf13842470bfda038a3fe5acdd76658c7443810ce859664736f6c634300080b00333c73766720786d6c6e733d27687474703a2f2f7777772e77332e6f72672f323030302f73766727207072657365727665417370656374526174696f3d27784d696e594d696e206d656574272076696577426f783d273020302033353020333530273e3c7374796c653e2e62617365207b2066696c6c3a2077686974653b20666f6e742d66616d696c793a2073657269663b20666f6e742d73697a653a20323470783b207d3c2f7374796c653e3c726563742077696474683d273130302527206865696768743d2731303025272066696c6c3d27272f3e3c7465787420783d273530252720793d273530252720636c6173733d27626173652720646f6d696e616e742d626173656c696e653d276d6964646c652720746578742d616e63686f723d276d6964646c65273e",
  "linkReferences": {},
  "deployedLinkReferences": {}
}